{
  "abi": [
    {
      "inputs": [],
      "stateMutability": "nonpayable",
      "type": "constructor"
    },
    {
      "inputs": [
        {
          "internalType": "address",
          "name": "",
          "type": "address"
        }
      ],
      "name": "ChallengeAlreadyCreated",
      "type": "error"
    },
    {
      "inputs": [
        {
          "internalType": "uint256",
          "name": "",
          "type": "uint256"
        },
        {
          "internalType": "uint256",
          "name": "",
          "type": "uint256"
        }
      ],
      "name": "InvalidTimestamp",
      "type": "error"
    },
    {
      "inputs": [
        {
          "internalType": "address",
          "name": "",
          "type": "address"
        },
        {
          "internalType": "address",
          "name": "",
          "type": "address"
        }
      ],
      "name": "Unauthorised",
      "type": "error"
    },
    {
      "anonymous": false,
      "inputs": [
        {
          "indexed": true,
          "internalType": "uint256",
          "name": "challengeId",
          "type": "uint256"
        },
        {
          "indexed": true,
          "internalType": "address",
          "name": "challenge",
          "type": "address"
        }
      ],
      "name": "ChallengeDeployed",
      "type": "event"
    },
    {
      "inputs": [
        {
          "internalType": "uint256",
          "name": "",
          "type": "uint256"
        }
      ],
      "name": "allChallenges",
      "outputs": [
        {
          "internalType": "address",
          "name": "",
          "type": "address"
        }
      ],
      "stateMutability": "view",
      "type": "function"
    },
    {
      "inputs": [],
      "name": "allChallengesLength",
      "outputs": [
        {
          "internalType": "uint256",
          "name": "",
          "type": "uint256"
        }
      ],
      "stateMutability": "view",
      "type": "function"
    },
    {
      "inputs": [
        {
          "internalType": "uint256",
          "name": "_challengeId",
          "type": "uint256"
        },
        {
          "internalType": "string",
          "name": "_challengeName",
          "type": "string"
        },
        {
          "internalType": "uint256",
          "name": "_depositAmount",
          "type": "uint256"
        },
        {
          "internalType": "uint256",
          "name": "_beginTimestamp",
          "type": "uint256"
        },
        {
          "internalType": "uint256",
          "name": "_endTimestamp",
          "type": "uint256"
        }
      ],
      "name": "createChallenge",
      "outputs": [
        {
          "internalType": "address",
          "name": "challenge",
          "type": "address"
        }
      ],
      "stateMutability": "nonpayable",
      "type": "function"
    },
    {
      "inputs": [
        {
          "internalType": "uint256",
          "name": "",
          "type": "uint256"
        }
      ],
      "name": "getChallenge",
      "outputs": [
        {
          "internalType": "address",
          "name": "",
          "type": "address"
        }
      ],
      "stateMutability": "view",
      "type": "function"
    },
    {
      "inputs": [
        {
          "internalType": "address",
          "name": "",
          "type": "address"
        }
      ],
      "name": "getId",
      "outputs": [
        {
          "internalType": "uint256",
          "name": "",
          "type": "uint256"
        }
      ],
      "stateMutability": "view",
      "type": "function"
    },
    {
      "inputs": [],
      "name": "owner",
      "outputs": [
        {
          "internalType": "address",
          "name": "",
          "type": "address"
        }
      ],
      "stateMutability": "view",
      "type": "function"
    },
    {
      "inputs": [
        {
          "internalType": "address",
          "name": "_newOwner",
          "type": "address"
        }
      ],
      "name": "setOwner",
      "outputs": [],
      "stateMutability": "nonpayable",
      "type": "function"
    }
  ],
  "bytecode": {
    "object": "0x608060405234801561001057600080fd5b50600380546001600160a01b0319163317905561184e806100326000396000f3fe608060405234801561001057600080fd5b506004361061007d5760003560e01c806365f68c891161005b57806365f68c89146100f05780638da5cb5b1461011e5780639b23204b14610131578063a454962e1461013957600080fd5b806313af40351461008257806317e42cc0146100975780631bdd4b74146100c7575b600080fd5b610095610090366004610451565b61014c565b005b6100aa6100a5366004610481565b6101b3565b6040516001600160a01b0390911681526020015b60405180910390f35b6100aa6100d5366004610514565b6001602052600090815260409020546001600160a01b031681565b6101106100fe366004610451565b60006020819052908152604090205481565b6040519081526020016100be565b6003546100aa906001600160a01b031681565b600254610110565b6100aa610147366004610514565b61038e565b6003546001600160a01b0316331461019157600354604051632d55656d60e01b81526001600160a01b0390911660048201523360248201526044015b60405180910390fd5b600380546001600160a01b0319166001600160a01b0392909216919091179055565b6003546000906001600160a01b031633146101f657600354604051632d55656d60e01b81526001600160a01b039091166004820152336024820152604401610188565b824211156102215760405163cbda5f6b60e01b81526004810184905260248101839052604401610188565b8282101561024c5760405163cbda5f6b60e01b81526004810184905260248101839052604401610188565b6000878152600160205260409020546001600160a01b03161561029e57600087815260016020526040908190205490516385df92ad60e01b81526001600160a01b039091166004820152602401610188565b60006102e58888888080601f0160208091040260200160405190810160405280939291908181526020018383808284376000920191909152508a92508991508890506103b8565b6002805460018181019092557f405787fa12a823e0f2b7631cc41b3ba8828b3321ca811111fa75cd3aa3bb5ace0180546001600160a01b0384166001600160a01b031991821681179092556000828152602081815260408083208f90558e8352949052838120805490921683179091559151929450849350918a917fd42e6013fc1226c56f6174242b68c51970bc4fc5b132c8c5778e1bd97dcb156691a3509695505050505050565b6002818154811061039e57600080fd5b6000918252602090912001546001600160a01b0316905081565b6000856040516020016103cd91815260200190565b604051602081830303815290604052805190602001208686858588600360009054906101000a90046001600160a01b031660405161040a90610444565b6104199695949392919061052d565b8190604051809103906000f5905080158015610439573d6000803e3d6000fd5b509695505050505050565b61126a806105af83390190565b60006020828403121561046357600080fd5b81356001600160a01b038116811461047a57600080fd5b9392505050565b60008060008060008060a0878903121561049a57600080fd5b86359550602087013567ffffffffffffffff808211156104b957600080fd5b818901915089601f8301126104cd57600080fd5b8135818111156104dc57600080fd5b8a60208285010111156104ee57600080fd5b979a60209290920199509697604081013597506060810135965060800135945092505050565b60006020828403121561052657600080fd5b5035919050565b8681526000602060c08184015287518060c085015260005b818110156105615789810183015185820160e001528201610545565b50600060e0828601015260e0601f19601f830116850101925050508560408301528460608301528360808301526105a360a08301846001600160a01b03169052565b97965050505050505056fe6101006040523480156200001257600080fd5b506040516200126a3803806200126a8339810160408190526200003591620000b3565b6080869052600062000048868262000250565b5060c09390935260e09190915260a052600480546001600160a01b0319166001600160a01b03909216919091179055506200031c9050565b634e487b7160e01b600052604160045260246000fd5b80516001600160a01b0381168114620000ae57600080fd5b919050565b60008060008060008060c08789031215620000cd57600080fd5b8651602080890151919750906001600160401b0380821115620000ef57600080fd5b818a0191508a601f8301126200010457600080fd5b81518181111562000119576200011962000080565b604051601f8201601f19908116603f0116810190838211818310171562000144576200014462000080565b816040528281528d868487010111156200015d57600080fd5b600093505b8284101562000181578484018601518185018701529285019262000162565b6000868483010152809a50505050505050604087015193506060870151925060808701519150620001b560a0880162000096565b90509295509295509295565b600181811c90821680620001d657607f821691505b602082108103620001f757634e487b7160e01b600052602260045260246000fd5b50919050565b601f8211156200024b57600081815260208120601f850160051c81016020861015620002265750805b601f850160051c820191505b81811015620002475782815560010162000232565b5050505b505050565b81516001600160401b038111156200026c576200026c62000080565b62000284816200027d8454620001c1565b84620001fd565b602080601f831160018114620002bc5760008415620002a35750858301515b600019600386901b1c1916600185901b17855562000247565b600085815260208120601f198616915b82811015620002ed57888601518255948401946001909101908401620002cc565b50858210156200030c5787850151600019600388901b60f8161c191681555b5050505050600190811b01905550565b60805160a05160c05160e051610ee362000387600039600081816102b301526103d4015260008181610254015281816103a9015261058e01526000818161019e015281816106190152818161074a01528181610c590152610ce5015260006101d30152610ee36000f3fe608060405234801561001057600080fd5b50600436106101375760003560e01c806378bbca82116100b8578063b88a802f1161007c578063b88a802f146102dd578063b92ae87c146102e5578063d9fca76914610308578063dfbf53ae1461031b578063fa391c6414610335578063fcae44841461034957600080fd5b806378bbca821461027e5780638da5cb5b146102935780638f449a05146102a6578063a85adeab146102ae578063aa5c1164146102d557600080fd5b806357c9ca14116100ff57806357c9ca14146101f55780635aa68ac0146102095780635ff3f5b61461021e578063672a0fb81461024f578063675f8aea1461027657600080fd5b806313af40351461013c57806322f3e2d41461015157806335c1d3491461016e578063419759f514610199578063483e6e3a146101ce575b600080fd5b61014f61014a366004610d32565b610351565b005b6101596103a5565b60405190151581526020015b60405180910390f35b61018161017c366004610d62565b6103fc565b6040516001600160a01b039091168152602001610165565b6101c07f000000000000000000000000000000000000000000000000000000000000000081565b604051908152602001610165565b6101c07f000000000000000000000000000000000000000000000000000000000000000081565b60035461015990600160f81b900460ff1681565b610211610426565b6040516101659190610d7b565b6003546102349069ffffffffffffffffffff1681565b60405169ffffffffffffffffffff9091168152602001610165565b6101c07f000000000000000000000000000000000000000000000000000000000000000081565b6101c0610488565b6102866104fe565b6040516101659190610dc8565b600454610181906001600160a01b031681565b61014f61058c565b6101c07f000000000000000000000000000000000000000000000000000000000000000081565b61014f61077b565b61014f61088e565b6101596102f3366004610d32565b60016020526000908152604090205460ff1681565b61014f610316366004610d32565b610a22565b60035461018190600160501b90046001600160a01b031681565b60035461015990600160f01b900460ff1681565b61014f610bd1565b6004546001600160a01b031633146103835760405163570870ef60e11b81523360048201526024015b60405180910390fd5b600480546001600160a01b0319166001600160a01b0392909216919091179055565b60007f000000000000000000000000000000000000000000000000000000000000000042101580156103f757507f00000000000000000000000000000000000000000000000000000000000000004211155b905090565b6002818154811061040c57600080fd5b6000918252602090912001546001600160a01b0316905081565b6060600280548060200260200160405190810160405280929190818152602001828054801561047e57602002820191906000526020600020905b81546001600160a01b03168152600190910190602001808311610460575b5050505050905090565b6040516370a0823160e01b8152306004820152600090739b53c5a7a5a1c1a38401a11f51a223d3f17bcf03906370a0823190602401602060405180830381865afa1580156104da573d6000803e3d6000fd5b505050506040513d601f19601f820116820180604052508101906103f79190610e16565b6000805461050b90610e2f565b80601f016020809104026020016040519081016040528092919081815260200182805461053790610e2f565b80156105845780601f1061055957610100808354040283529160200191610584565b820191906000526020600020905b81548152906001019060200180831161056757829003601f168201915b505050505081565b7f00000000000000000000000000000000000000000000000000000000000000004211156105cd57604051636c5a211960e01b815260040160405180910390fd5b3360009081526001602052604090205460ff16156105fe57604051632fec509960e11b815260040160405180910390fd5b6040516323b872dd60e01b81523360048201523060248201527f00000000000000000000000000000000000000000000000000000000000000006044820152739b53c5a7a5a1c1a38401a11f51a223d3f17bcf03906323b872dd906064016020604051808303816000875af115801561067b573d6000803e3d6000fd5b505050506040513d601f19601f8201168201806040525081019061069f9190610e69565b50336000818152600160208190526040808320805460ff1916831790556003805469ffffffffffffffffffff80821685011669ffffffffffffffffffff199091161790556002805492830181559092527f405787fa12a823e0f2b7631cc41b3ba8828b3321ca811111fa75cd3aa3bb5ace0180546001600160a01b03191683179055517f1aff03dc3f62d2c984469e42def4321d24a08ae66db4c0d2623666b90d7742c690610771907f0000000000000000000000000000000000000000000000000000000000000000815260200190565b60405180910390a2565b739b53c5a7a5a1c1a38401a11f51a223d3f17bcf0363a9059cbb33600a6107a0610488565b6107aa9190610e8b565b6040516001600160e01b031960e085901b1681526001600160a01b03909216600483015260248201526044016020604051808303816000875af11580156107f5573d6000803e3d6000fd5b505050506040513d601f19601f820116820180604052508101906108199190610e69565b50739b53c5a7a5a1c1a38401a11f51a223d3f17bcf036342966c6861083c610488565b6040518263ffffffff1660e01b815260040161085a91815260200190565b600060405180830381600087803b15801561087457600080fd5b505af1158015610888573d6000803e3d6000fd5b50505050565b600354600160501b90046001600160a01b031633146108c0576040516330c6392160e11b815260040160405180910390fd5b600354600160f81b900460ff16156108eb57604051630c8d9eab60e31b815260040160405180910390fd5b6040516370a0823160e01b8152306004820152600090739b53c5a7a5a1c1a38401a11f51a223d3f17bcf03906370a0823190602401602060405180830381865afa15801561093d573d6000803e3d6000fd5b505050506040513d601f19601f820116820180604052508101906109619190610e16565b60405163a9059cbb60e01b815233600482015260248101829052909150739b53c5a7a5a1c1a38401a11f51a223d3f17bcf039063a9059cbb906044016020604051808303816000875af11580156109bc573d6000803e3d6000fd5b505050506040513d601f19601f820116820180604052508101906109e09190610e69565b50600380546001600160f81b0316600160f81b1790556040517f4f9e331b4e831b7413d9cd54e2efdc6bf0b486c84d7001e762420e749faa5fb590600090a150565b610a2a6103a5565b610a475760405163beb11d3b60e01b815260040160405180910390fd5b6004546001600160a01b03163314610a745760405163570870ef60e11b815233600482015260240161037a565b600354600160f01b900460ff1615610a9f5760405163195332a560e01b815260040160405180910390fd5b6001600160a01b03811660009081526001602052604090205460ff16610ad857604051631777f64d60e21b815260040160405180910390fd5b6003805460ff60f01b196001600160a01b038416600160501b8102919091167fff000000000000000000000000000000000000000000ffffffffffffffffffff90921691909117600160f01b179091556040516370a0823160e01b81523060048201527f57213678a1941131f1846559e4f0509e68d1a52c4d05bf0c3e8514c7a00b5d0b90739b53c5a7a5a1c1a38401a11f51a223d3f17bcf03906370a0823190602401602060405180830381865afa158015610b99573d6000803e3d6000fd5b505050506040513d601f19601f82011682018060405250810190610bbd9190610e16565b60405190815260200160405180910390a250565b3360009081526001602052604090205460ff16610c0157604051631777f64d60e21b815260040160405180910390fd5b3360008181526001602052604090819020805460ff191690556003805469ffffffffffffffffffff19811669ffffffffffffffffffff918216600019019091161790555163a9059cbb60e01b815260048101919091527f00000000000000000000000000000000000000000000000000000000000000006024820152739b53c5a7a5a1c1a38401a11f51a223d3f17bcf039063a9059cbb906044016020604051808303816000875af1158015610cbb573d6000803e3d6000fd5b505050506040513d601f19601f82011682018060405250810190610cdf9190610e69565b506040517f0000000000000000000000000000000000000000000000000000000000000000815233907f5c85bfb296374e9e18816cf1fbbe5a6a798dea6bf9eef8a34313e69827ea896f90602001610771565b600060208284031215610d4457600080fd5b81356001600160a01b0381168114610d5b57600080fd5b9392505050565b600060208284031215610d7457600080fd5b5035919050565b6020808252825182820181905260009190848201906040850190845b81811015610dbc5783516001600160a01b031683529284019291840191600101610d97565b50909695505050505050565b600060208083528351808285015260005b81811015610df557858101830151858201604001528201610dd9565b506000604082860101526040601f19601f8301168501019250505092915050565b600060208284031215610e2857600080fd5b5051919050565b600181811c90821680610e4357607f821691505b602082108103610e6357634e487b7160e01b600052602260045260246000fd5b50919050565b600060208284031215610e7b57600080fd5b81518015158114610d5b57600080fd5b600082610ea857634e487b7160e01b600052601260045260246000fd5b50049056fea2646970667358221220c14a56dbe67af19a4f30b056520b32bf0bffeb2d60a13fc8abbe78b056880c7064736f6c63430008110033a2646970667358221220b9f95106177e1f996749816b2c88134a06e425a2a3320a0efce287b4670a181564736f6c63430008110033",
    "linkReferences": {}
  },
  "methodIdentifiers": {
    "allChallenges(uint256)": "a454962e",
    "allChallengesLength()": "9b23204b",
    "createChallenge(uint256,string,uint256,uint256,uint256)": "17e42cc0",
    "getChallenge(uint256)": "1bdd4b74",
    "getId(address)": "65f68c89",
    "owner()": "8da5cb5b",
    "setOwner(address)": "13af4035"
  },
  "id": 14
}